{
  "contractName": "Land",
  "abi": [
    {
      "inputs": [],
      "payable": false,
      "stateMutability": "nonpayable",
      "type": "constructor"
    },
    {
      "anonymous": false,
      "inputs": [
        {
          "indexed": true,
          "internalType": "uint256",
          "name": "_landId",
          "type": "uint256"
        }
      ],
      "name": "AddingLand",
      "type": "event"
    },
    {
      "anonymous": false,
      "inputs": [
        {
          "indexed": false,
          "internalType": "address",
          "name": "_sellerId",
          "type": "address"
        }
      ],
      "name": "Landrequested",
      "type": "event"
    },
    {
      "anonymous": false,
      "inputs": [
        {
          "indexed": false,
          "internalType": "address",
          "name": "_registrationId",
          "type": "address"
        }
      ],
      "name": "Registration",
      "type": "event"
    },
    {
      "anonymous": false,
      "inputs": [
        {
          "indexed": false,
          "internalType": "address",
          "name": "_id",
          "type": "address"
        }
      ],
      "name": "Rejected",
      "type": "event"
    },
    {
      "anonymous": false,
      "inputs": [
        {
          "indexed": false,
          "internalType": "address",
          "name": "_id",
          "type": "address"
        }
      ],
      "name": "Verified",
      "type": "event"
    },
    {
      "anonymous": false,
      "inputs": [
        {
          "indexed": false,
          "internalType": "address",
          "name": "_buyerId",
          "type": "address"
        }
      ],
      "name": "requestApproved",
      "type": "event"
    },
    {
      "constant": true,
      "inputs": [
        {
          "internalType": "address",
          "name": "",
          "type": "address"
        }
      ],
      "name": "BuyerMapping",
      "outputs": [
        {
          "internalType": "address",
          "name": "id",
          "type": "address"
        },
        {
          "internalType": "string",
          "name": "name",
          "type": "string"
        },
        {
          "internalType": "uint256",
          "name": "age",
          "type": "uint256"
        },
        {
          "internalType": "string",
          "name": "city",
          "type": "string"
        },
        {
          "internalType": "string",
          "name": "aadharNumber",
          "type": "string"
        },
        {
          "internalType": "string",
          "name": "panNumber",
          "type": "string"
        },
        {
          "internalType": "string",
          "name": "document",
          "type": "string"
        },
        {
          "internalType": "string",
          "name": "email",
          "type": "string"
        }
      ],
      "payable": false,
      "stateMutability": "view",
      "type": "function"
    },
    {
      "constant": true,
      "inputs": [
        {
          "internalType": "address",
          "name": "",
          "type": "address"
        }
      ],
      "name": "BuyerRejection",
      "outputs": [
        {
          "internalType": "bool",
          "name": "",
          "type": "bool"
        }
      ],
      "payable": false,
      "stateMutability": "view",
      "type": "function"
    },
    {
      "constant": true,
      "inputs": [
        {
          "internalType": "address",
          "name": "",
          "type": "address"
        }
      ],
      "name": "BuyerVerification",
      "outputs": [
        {
          "internalType": "bool",
          "name": "",
          "type": "bool"
        }
      ],
      "payable": false,
      "stateMutability": "view",
      "type": "function"
    },
    {
      "constant": true,
      "inputs": [
        {
          "internalType": "uint256",
          "name": "",
          "type": "uint256"
        }
      ],
      "name": "InspectorMapping",
      "outputs": [
        {
          "internalType": "uint256",
          "name": "id",
          "type": "uint256"
        },
        {
          "internalType": "string",
          "name": "name",
          "type": "string"
        },
        {
          "internalType": "uint256",
          "name": "age",
          "type": "uint256"
        },
        {
          "internalType": "string",
          "name": "designation",
          "type": "string"
        }
      ],
      "payable": false,
      "stateMutability": "view",
      "type": "function"
    },
    {
      "constant": true,
      "inputs": [
        {
          "internalType": "uint256",
          "name": "",
          "type": "uint256"
        }
      ],
      "name": "LandOwner",
      "outputs": [
        {
          "internalType": "address",
          "name": "",
          "type": "address"
        }
      ],
      "payable": false,
      "stateMutability": "view",
      "type": "function"
    },
    {
      "constant": true,
      "inputs": [
        {
          "internalType": "uint256",
          "name": "",
          "type": "uint256"
        }
      ],
      "name": "LandVerification",
      "outputs": [
        {
          "internalType": "bool",
          "name": "",
          "type": "bool"
        }
      ],
      "payable": false,
      "stateMutability": "view",
      "type": "function"
    },
    {
      "constant": true,
      "inputs": [],
      "name": "Land_Inspector",
      "outputs": [
        {
          "internalType": "address",
          "name": "",
          "type": "address"
        }
      ],
      "payable": false,
      "stateMutability": "view",
      "type": "function"
    },
    {
      "constant": true,
      "inputs": [
        {
          "internalType": "uint256",
          "name": "",
          "type": "uint256"
        }
      ],
      "name": "PaymentReceived",
      "outputs": [
        {
          "internalType": "bool",
          "name": "",
          "type": "bool"
        }
      ],
      "payable": false,
      "stateMutability": "view",
      "type": "function"
    },
    {
      "constant": true,
      "inputs": [
        {
          "internalType": "address",
          "name": "",
          "type": "address"
        }
      ],
      "name": "RegisteredAddressMapping",
      "outputs": [
        {
          "internalType": "bool",
          "name": "",
          "type": "bool"
        }
      ],
      "payable": false,
      "stateMutability": "view",
      "type": "function"
    },
    {
      "constant": true,
      "inputs": [
        {
          "internalType": "address",
          "name": "",
          "type": "address"
        }
      ],
      "name": "RegisteredBuyerMapping",
      "outputs": [
        {
          "internalType": "bool",
          "name": "",
          "type": "bool"
        }
      ],
      "payable": false,
      "stateMutability": "view",
      "type": "function"
    },
    {
      "constant": true,
      "inputs": [
        {
          "internalType": "address",
          "name": "",
          "type": "address"
        }
      ],
      "name": "RegisteredSellerMapping",
      "outputs": [
        {
          "internalType": "bool",
          "name": "",
          "type": "bool"
        }
      ],
      "payable": false,
      "stateMutability": "view",
      "type": "function"
    },
    {
      "constant": true,
      "inputs": [
        {
          "internalType": "uint256",
          "name": "",
          "type": "uint256"
        }
      ],
      "name": "RequestStatus",
      "outputs": [
        {
          "internalType": "bool",
          "name": "",
          "type": "bool"
        }
      ],
      "payable": false,
      "stateMutability": "view",
      "type": "function"
    },
    {
      "constant": true,
      "inputs": [
        {
          "internalType": "uint256",
          "name": "",
          "type": "uint256"
        }
      ],
      "name": "RequestedLands",
      "outputs": [
        {
          "internalType": "bool",
          "name": "",
          "type": "bool"
        }
      ],
      "payable": false,
      "stateMutability": "view",
      "type": "function"
    },
    {
      "constant": true,
      "inputs": [
        {
          "internalType": "uint256",
          "name": "",
          "type": "uint256"
        }
      ],
      "name": "RequestsMapping",
      "outputs": [
        {
          "internalType": "uint256",
          "name": "reqId",
          "type": "uint256"
        },
        {
          "internalType": "address",
          "name": "sellerId",
          "type": "address"
        },
        {
          "internalType": "address",
          "name": "buyerId",
          "type": "address"
        },
        {
          "internalType": "uint256",
          "name": "landId",
          "type": "uint256"
        }
      ],
      "payable": false,
      "stateMutability": "view",
      "type": "function"
    },
    {
      "constant": true,
      "inputs": [
        {
          "internalType": "address",
          "name": "",
          "type": "address"
        }
      ],
      "name": "SellerMapping",
      "outputs": [
        {
          "internalType": "address",
          "name": "id",
          "type": "address"
        },
        {
          "internalType": "string",
          "name": "name",
          "type": "string"
        },
        {
          "internalType": "uint256",
          "name": "age",
          "type": "uint256"
        },
        {
          "internalType": "string",
          "name": "aadharNumber",
          "type": "string"
        },
        {
          "internalType": "string",
          "name": "panNumber",
          "type": "string"
        },
        {
          "internalType": "string",
          "name": "landsOwned",
          "type": "string"
        },
        {
          "internalType": "string",
          "name": "document",
          "type": "string"
        }
      ],
      "payable": false,
      "stateMutability": "view",
      "type": "function"
    },
    {
      "constant": true,
      "inputs": [
        {
          "internalType": "address",
          "name": "",
          "type": "address"
        }
      ],
      "name": "SellerRejection",
      "outputs": [
        {
          "internalType": "bool",
          "name": "",
          "type": "bool"
        }
      ],
      "payable": false,
      "stateMutability": "view",
      "type": "function"
    },
    {
      "constant": true,
      "inputs": [
        {
          "internalType": "address",
          "name": "",
          "type": "address"
        }
      ],
      "name": "SellerVerification",
      "outputs": [
        {
          "internalType": "bool",
          "name": "",
          "type": "bool"
        }
      ],
      "payable": false,
      "stateMutability": "view",
      "type": "function"
    },
    {
      "constant": true,
      "inputs": [
        {
          "internalType": "uint256",
          "name": "",
          "type": "uint256"
        }
      ],
      "name": "buyers",
      "outputs": [
        {
          "internalType": "address",
          "name": "",
          "type": "address"
        }
      ],
      "payable": false,
      "stateMutability": "view",
      "type": "function"
    },
    {
      "constant": true,
      "inputs": [],
      "name": "buyersCount",
      "outputs": [
        {
          "internalType": "uint256",
          "name": "",
          "type": "uint256"
        }
      ],
      "payable": false,
      "stateMutability": "view",
      "type": "function"
    },
    {
      "constant": true,
      "inputs": [],
      "name": "inspectorsCount",
      "outputs": [
        {
          "internalType": "uint256",
          "name": "",
          "type": "uint256"
        }
      ],
      "payable": false,
      "stateMutability": "view",
      "type": "function"
    },
    {
      "constant": true,
      "inputs": [
        {
          "internalType": "uint256",
          "name": "",
          "type": "uint256"
        }
      ],
      "name": "lands",
      "outputs": [
        {
          "internalType": "uint256",
          "name": "id",
          "type": "uint256"
        },
        {
          "internalType": "uint256",
          "name": "area",
          "type": "uint256"
        },
        {
          "internalType": "string",
          "name": "city",
          "type": "string"
        },
        {
          "internalType": "string",
          "name": "state",
          "type": "string"
        },
        {
          "internalType": "uint256",
          "name": "landPrice",
          "type": "uint256"
        },
        {
          "internalType": "uint256",
          "name": "propertyPID",
          "type": "uint256"
        },
        {
          "internalType": "uint256",
          "name": "physicalSurveyNumber",
          "type": "uint256"
        },
        {
          "internalType": "string",
          "name": "ipfsHash",
          "type": "string"
        },
        {
          "internalType": "string",
          "name": "document",
          "type": "string"
        }
      ],
      "payable": false,
      "stateMutability": "view",
      "type": "function"
    },
    {
      "constant": true,
      "inputs": [],
      "name": "landsCount",
      "outputs": [
        {
          "internalType": "uint256",
          "name": "",
          "type": "uint256"
        }
      ],
      "payable": false,
      "stateMutability": "view",
      "type": "function"
    },
    {
      "constant": true,
      "inputs": [],
      "name": "requestsCount",
      "outputs": [
        {
          "internalType": "uint256",
          "name": "",
          "type": "uint256"
        }
      ],
      "payable": false,
      "stateMutability": "view",
      "type": "function"
    },
    {
      "constant": true,
      "inputs": [
        {
          "internalType": "uint256",
          "name": "",
          "type": "uint256"
        }
      ],
      "name": "sellers",
      "outputs": [
        {
          "internalType": "address",
          "name": "",
          "type": "address"
        }
      ],
      "payable": false,
      "stateMutability": "view",
      "type": "function"
    },
    {
      "constant": true,
      "inputs": [],
      "name": "sellersCount",
      "outputs": [
        {
          "internalType": "uint256",
          "name": "",
          "type": "uint256"
        }
      ],
      "payable": false,
      "stateMutability": "view",
      "type": "function"
    },
    {
      "constant": true,
      "inputs": [],
      "name": "getLandsCount",
      "outputs": [
        {
          "internalType": "uint256",
          "name": "",
          "type": "uint256"
        }
      ],
      "payable": false,
      "stateMutability": "view",
      "type": "function"
    },
    {
      "constant": true,
      "inputs": [],
      "name": "getBuyersCount",
      "outputs": [
        {
          "internalType": "uint256",
          "name": "",
          "type": "uint256"
        }
      ],
      "payable": false,
      "stateMutability": "view",
      "type": "function"
    },
    {
      "constant": true,
      "inputs": [],
      "name": "getSellersCount",
      "outputs": [
        {
          "internalType": "uint256",
          "name": "",
          "type": "uint256"
        }
      ],
      "payable": false,
      "stateMutability": "view",
      "type": "function"
    },
    {
      "constant": true,
      "inputs": [],
      "name": "getRequestsCount",
      "outputs": [
        {
          "internalType": "uint256",
          "name": "",
          "type": "uint256"
        }
      ],
      "payable": false,
      "stateMutability": "view",
      "type": "function"
    },
    {
      "constant": true,
      "inputs": [
        {
          "internalType": "uint256",
          "name": "i",
          "type": "uint256"
        }
      ],
      "name": "getArea",
      "outputs": [
        {
          "internalType": "uint256",
          "name": "",
          "type": "uint256"
        }
      ],
      "payable": false,
      "stateMutability": "view",
      "type": "function"
    },
    {
      "constant": true,
      "inputs": [
        {
          "internalType": "uint256",
          "name": "i",
          "type": "uint256"
        }
      ],
      "name": "getCity",
      "outputs": [
        {
          "internalType": "string",
          "name": "",
          "type": "string"
        }
      ],
      "payable": false,
      "stateMutability": "view",
      "type": "function"
    },
    {
      "constant": true,
      "inputs": [
        {
          "internalType": "uint256",
          "name": "i",
          "type": "uint256"
        }
      ],
      "name": "getState",
      "outputs": [
        {
          "internalType": "string",
          "name": "",
          "type": "string"
        }
      ],
      "payable": false,
      "stateMutability": "view",
      "type": "function"
    },
    {
      "constant": true,
      "inputs": [],
      "name": "getRequestedLandsCount",
      "outputs": [
        {
          "internalType": "uint256",
          "name": "",
          "type": "uint256"
        }
      ],
      "payable": false,
      "stateMutability": "view",
      "type": "function"
    },
    {
      "constant": true,
      "inputs": [
        {
          "internalType": "uint256",
          "name": "i",
          "type": "uint256"
        }
      ],
      "name": "getPrice",
      "outputs": [
        {
          "internalType": "uint256",
          "name": "",
          "type": "uint256"
        }
      ],
      "payable": false,
      "stateMutability": "view",
      "type": "function"
    },
    {
      "constant": true,
      "inputs": [
        {
          "internalType": "uint256",
          "name": "i",
          "type": "uint256"
        }
      ],
      "name": "getPID",
      "outputs": [
        {
          "internalType": "uint256",
          "name": "",
          "type": "uint256"
        }
      ],
      "payable": false,
      "stateMutability": "view",
      "type": "function"
    },
    {
      "constant": true,
      "inputs": [
        {
          "internalType": "uint256",
          "name": "i",
          "type": "uint256"
        }
      ],
      "name": "getSurveyNumber",
      "outputs": [
        {
          "internalType": "uint256",
          "name": "",
          "type": "uint256"
        }
      ],
      "payable": false,
      "stateMutability": "view",
      "type": "function"
    },
    {
      "constant": true,
      "inputs": [
        {
          "internalType": "uint256",
          "name": "i",
          "type": "uint256"
        }
      ],
      "name": "getImage",
      "outputs": [
        {
          "internalType": "string",
          "name": "",
          "type": "string"
        }
      ],
      "payable": false,
      "stateMutability": "view",
      "type": "function"
    },
    {
      "constant": true,
      "inputs": [
        {
          "internalType": "uint256",
          "name": "i",
          "type": "uint256"
        }
      ],
      "name": "getDocument",
      "outputs": [
        {
          "internalType": "string",
          "name": "",
          "type": "string"
        }
      ],
      "payable": false,
      "stateMutability": "view",
      "type": "function"
    },
    {
      "constant": true,
      "inputs": [
        {
          "internalType": "uint256",
          "name": "id",
          "type": "uint256"
        }
      ],
      "name": "getLandOwner",
      "outputs": [
        {
          "internalType": "address",
          "name": "",
          "type": "address"
        }
      ],
      "payable": false,
      "stateMutability": "view",
      "type": "function"
    },
    {
      "constant": false,
      "inputs": [
        {
          "internalType": "address",
          "name": "_sellerId",
          "type": "address"
        }
      ],
      "name": "verifySeller",
      "outputs": [],
      "payable": false,
      "stateMutability": "nonpayable",
      "type": "function"
    },
    {
      "constant": false,
      "inputs": [
        {
          "internalType": "address",
          "name": "_sellerId",
          "type": "address"
        }
      ],
      "name": "rejectSeller",
      "outputs": [],
      "payable": false,
      "stateMutability": "nonpayable",
      "type": "function"
    },
    {
      "constant": false,
      "inputs": [
        {
          "internalType": "address",
          "name": "_buyerId",
          "type": "address"
        }
      ],
      "name": "verifyBuyer",
      "outputs": [],
      "payable": false,
      "stateMutability": "nonpayable",
      "type": "function"
    },
    {
      "constant": false,
      "inputs": [
        {
          "internalType": "address",
          "name": "_buyerId",
          "type": "address"
        }
      ],
      "name": "rejectBuyer",
      "outputs": [],
      "payable": false,
      "stateMutability": "nonpayable",
      "type": "function"
    },
    {
      "constant": false,
      "inputs": [
        {
          "internalType": "uint256",
          "name": "_landId",
          "type": "uint256"
        }
      ],
      "name": "verifyLand",
      "outputs": [],
      "payable": false,
      "stateMutability": "nonpayable",
      "type": "function"
    },
    {
      "constant": true,
      "inputs": [
        {
          "internalType": "uint256",
          "name": "_id",
          "type": "uint256"
        }
      ],
      "name": "isLandVerified",
      "outputs": [
        {
          "internalType": "bool",
          "name": "",
          "type": "bool"
        }
      ],
      "payable": false,
      "stateMutability": "view",
      "type": "function"
    },
    {
      "constant": true,
      "inputs": [
        {
          "internalType": "address",
          "name": "_id",
          "type": "address"
        }
      ],
      "name": "isVerified",
      "outputs": [
        {
          "internalType": "bool",
          "name": "",
          "type": "bool"
        }
      ],
      "payable": false,
      "stateMutability": "view",
      "type": "function"
    },
    {
      "constant": true,
      "inputs": [
        {
          "internalType": "address",
          "name": "_id",
          "type": "address"
        }
      ],
      "name": "isRejected",
      "outputs": [
        {
          "internalType": "bool",
          "name": "",
          "type": "bool"
        }
      ],
      "payable": false,
      "stateMutability": "view",
      "type": "function"
    },
    {
      "constant": true,
      "inputs": [
        {
          "internalType": "address",
          "name": "_id",
          "type": "address"
        }
      ],
      "name": "isSeller",
      "outputs": [
        {
          "internalType": "bool",
          "name": "",
          "type": "bool"
        }
      ],
      "payable": false,
      "stateMutability": "view",
      "type": "function"
    },
    {
      "constant": true,
      "inputs": [
        {
          "internalType": "address",
          "name": "_id",
          "type": "address"
        }
      ],
      "name": "isLandInspector",
      "outputs": [
        {
          "internalType": "bool",
          "name": "",
          "type": "bool"
        }
      ],
      "payable": false,
      "stateMutability": "view",
      "type": "function"
    },
    {
      "constant": true,
      "inputs": [
        {
          "internalType": "address",
          "name": "_id",
          "type": "address"
        }
      ],
      "name": "isBuyer",
      "outputs": [
        {
          "internalType": "bool",
          "name": "",
          "type": "bool"
        }
      ],
      "payable": false,
      "stateMutability": "view",
      "type": "function"
    },
    {
      "constant": true,
      "inputs": [
        {
          "internalType": "address",
          "name": "_id",
          "type": "address"
        }
      ],
      "name": "isRegistered",
      "outputs": [
        {
          "internalType": "bool",
          "name": "",
          "type": "bool"
        }
      ],
      "payable": false,
      "stateMutability": "view",
      "type": "function"
    },
    {
      "constant": false,
      "inputs": [
        {
          "internalType": "uint256",
          "name": "_area",
          "type": "uint256"
        },
        {
          "internalType": "string",
          "name": "_city",
          "type": "string"
        },
        {
          "internalType": "string",
          "name": "_state",
          "type": "string"
        },
        {
          "internalType": "uint256",
          "name": "landPrice",
          "type": "uint256"
        },
        {
          "internalType": "uint256",
          "name": "_propertyPID",
          "type": "uint256"
        },
        {
          "internalType": "uint256",
          "name": "_surveyNum",
          "type": "uint256"
        },
        {
          "internalType": "string",
          "name": "_ipfsHash",
          "type": "string"
        },
        {
          "internalType": "string",
          "name": "_document",
          "type": "string"
        }
      ],
      "name": "addLand",
      "outputs": [],
      "payable": false,
      "stateMutability": "nonpayable",
      "type": "function"
    },
    {
      "constant": false,
      "inputs": [
        {
          "internalType": "string",
          "name": "_name",
          "type": "string"
        },
        {
          "internalType": "uint256",
          "name": "_age",
          "type": "uint256"
        },
        {
          "internalType": "string",
          "name": "_aadharNumber",
          "type": "string"
        },
        {
          "internalType": "string",
          "name": "_panNumber",
          "type": "string"
        },
        {
          "internalType": "string",
          "name": "_landsOwned",
          "type": "string"
        },
        {
          "internalType": "string",
          "name": "_document",
          "type": "string"
        }
      ],
      "name": "registerSeller",
      "outputs": [],
      "payable": false,
      "stateMutability": "nonpayable",
      "type": "function"
    },
    {
      "constant": false,
      "inputs": [
        {
          "internalType": "string",
          "name": "_name",
          "type": "string"
        },
        {
          "internalType": "uint256",
          "name": "_age",
          "type": "uint256"
        },
        {
          "internalType": "string",
          "name": "_aadharNumber",
          "type": "string"
        },
        {
          "internalType": "string",
          "name": "_panNumber",
          "type": "string"
        },
        {
          "internalType": "string",
          "name": "_landsOwned",
          "type": "string"
        }
      ],
      "name": "updateSeller",
      "outputs": [],
      "payable": false,
      "stateMutability": "nonpayable",
      "type": "function"
    },
    {
      "constant": true,
      "inputs": [],
      "name": "getSeller",
      "outputs": [
        {
          "internalType": "address[]",
          "name": "",
          "type": "address[]"
        }
      ],
      "payable": false,
      "stateMutability": "view",
      "type": "function"
    },
    {
      "constant": true,
      "inputs": [
        {
          "internalType": "address",
          "name": "i",
          "type": "address"
        }
      ],
      "name": "getSellerDetails",
      "outputs": [
        {
          "internalType": "string",
          "name": "",
          "type": "string"
        },
        {
          "internalType": "uint256",
          "name": "",
          "type": "uint256"
        },
        {
          "internalType": "string",
          "name": "",
          "type": "string"
        },
        {
          "internalType": "string",
          "name": "",
          "type": "string"
        },
        {
          "internalType": "string",
          "name": "",
          "type": "string"
        },
        {
          "internalType": "string",
          "name": "",
          "type": "string"
        }
      ],
      "payable": false,
      "stateMutability": "view",
      "type": "function"
    },
    {
      "constant": false,
      "inputs": [
        {
          "internalType": "string",
          "name": "_name",
          "type": "string"
        },
        {
          "internalType": "uint256",
          "name": "_age",
          "type": "uint256"
        },
        {
          "internalType": "string",
          "name": "_city",
          "type": "string"
        },
        {
          "internalType": "string",
          "name": "_aadharNumber",
          "type": "string"
        },
        {
          "internalType": "string",
          "name": "_panNumber",
          "type": "string"
        },
        {
          "internalType": "string",
          "name": "_document",
          "type": "string"
        },
        {
          "internalType": "string",
          "name": "_email",
          "type": "string"
        }
      ],
      "name": "registerBuyer",
      "outputs": [],
      "payable": false,
      "stateMutability": "nonpayable",
      "type": "function"
    },
    {
      "constant": false,
      "inputs": [
        {
          "internalType": "string",
          "name": "_name",
          "type": "string"
        },
        {
          "internalType": "uint256",
          "name": "_age",
          "type": "uint256"
        },
        {
          "internalType": "string",
          "name": "_city",
          "type": "string"
        },
        {
          "internalType": "string",
          "name": "_aadharNumber",
          "type": "string"
        },
        {
          "internalType": "string",
          "name": "_email",
          "type": "string"
        },
        {
          "internalType": "string",
          "name": "_panNumber",
          "type": "string"
        }
      ],
      "name": "updateBuyer",
      "outputs": [],
      "payable": false,
      "stateMutability": "nonpayable",
      "type": "function"
    },
    {
      "constant": true,
      "inputs": [],
      "name": "getBuyer",
      "outputs": [
        {
          "internalType": "address[]",
          "name": "",
          "type": "address[]"
        }
      ],
      "payable": false,
      "stateMutability": "view",
      "type": "function"
    },
    {
      "constant": true,
      "inputs": [
        {
          "internalType": "address",
          "name": "i",
          "type": "address"
        }
      ],
      "name": "getBuyerDetails",
      "outputs": [
        {
          "internalType": "string",
          "name": "",
          "type": "string"
        },
        {
          "internalType": "string",
          "name": "",
          "type": "string"
        },
        {
          "internalType": "string",
          "name": "",
          "type": "string"
        },
        {
          "internalType": "string",
          "name": "",
          "type": "string"
        },
        {
          "internalType": "string",
          "name": "",
          "type": "string"
        },
        {
          "internalType": "uint256",
          "name": "",
          "type": "uint256"
        },
        {
          "internalType": "string",
          "name": "",
          "type": "string"
        }
      ],
      "payable": false,
      "stateMutability": "view",
      "type": "function"
    },
    {
      "constant": false,
      "inputs": [
        {
          "internalType": "address",
          "name": "_sellerId",
          "type": "address"
        },
        {
          "internalType": "uint256",
          "name": "_landId",
          "type": "uint256"
        }
      ],
      "name": "requestLand",
      "outputs": [],
      "payable": false,
      "stateMutability": "nonpayable",
      "type": "function"
    },
    {
      "constant": true,
      "inputs": [
        {
          "internalType": "uint256",
          "name": "i",
          "type": "uint256"
        }
      ],
      "name": "getRequestDetails",
      "outputs": [
        {
          "internalType": "address",
          "name": "",
          "type": "address"
        },
        {
          "internalType": "address",
          "name": "",
          "type": "address"
        },
        {
          "internalType": "uint256",
          "name": "",
          "type": "uint256"
        },
        {
          "internalType": "bool",
          "name": "",
          "type": "bool"
        }
      ],
      "payable": false,
      "stateMutability": "view",
      "type": "function"
    },
    {
      "constant": true,
      "inputs": [
        {
          "internalType": "uint256",
          "name": "_id",
          "type": "uint256"
        }
      ],
      "name": "isRequested",
      "outputs": [
        {
          "internalType": "bool",
          "name": "",
          "type": "bool"
        }
      ],
      "payable": false,
      "stateMutability": "view",
      "type": "function"
    },
    {
      "constant": true,
      "inputs": [
        {
          "internalType": "uint256",
          "name": "_id",
          "type": "uint256"
        }
      ],
      "name": "isApproved",
      "outputs": [
        {
          "internalType": "bool",
          "name": "",
          "type": "bool"
        }
      ],
      "payable": false,
      "stateMutability": "view",
      "type": "function"
    },
    {
      "constant": false,
      "inputs": [
        {
          "internalType": "uint256",
          "name": "_reqId",
          "type": "uint256"
        }
      ],
      "name": "approveRequest",
      "outputs": [],
      "payable": false,
      "stateMutability": "nonpayable",
      "type": "function"
    },
    {
      "constant": false,
      "inputs": [
        {
          "internalType": "uint256",
          "name": "_landId",
          "type": "uint256"
        },
        {
          "internalType": "address",
          "name": "_newOwner",
          "type": "address"
        }
      ],
      "name": "LandOwnershipTransfer",
      "outputs": [],
      "payable": false,
      "stateMutability": "nonpayable",
      "type": "function"
    },
    {
      "constant": true,
      "inputs": [
        {
          "internalType": "uint256",
          "name": "_landId",
          "type": "uint256"
        }
      ],
      "name": "isPaid",
      "outputs": [
        {
          "internalType": "bool",
          "name": "",
          "type": "bool"
        }
      ],
      "payable": false,
      "stateMutability": "view",
      "type": "function"
    },
    {
      "constant": false,
      "inputs": [
        {
          "internalType": "address payable",
          "name": "_receiver",
          "type": "address"
        },
        {
          "internalType": "uint256",
          "name": "_landId",
          "type": "uint256"
        }
      ],
      "name": "payment",
      "outputs": [],
      "payable": true,
      "stateMutability": "payable",
      "type": "function"
    }
  ],
  "bytecode": "0x60806040523480156200001157600080fd5b5060118054600160a060020a03191633179055604080518082018252600b81527f496e73706563746f7220310000000000000000000000000000000000000000006020808301919091528251808401909352600e83527f54656873696c204d616e6167657200000000000000000000000000000000000090830152620000a391602d90640100000000620000a9810204565b620001d7565b601580546001908101918290556040805160808101825283815260208082018881528284018890526060830187905260009586528482529290942081518155915180519194929362000102939085019291019062000132565b5060408201516002820155606082015180516200012a91600384019160209091019062000132565b505050505050565b828054600181600116156101000203166002900490600052602060002090601f016020900481019282601f106200017557805160ff1916838001178555620001a5565b82800160010185558215620001a5579182015b82811115620001a557825182559160200191906001019062000188565b50620001b3929150620001b7565b5090565b620001d491905b80821115620001b35760008155600101620001be565b90565b614c9380620001e76000396000f3fe60806040526004361061040c576000357c010000000000000000000000000000000000000000000000000000000090048063a47d4c0211610225578063dd9d122d11610135578063e7572230116100c8578063f34d4c6311610097578063f34d4c63146127f1578063f3f0c2181461284f578063f58f85b514612888578063f9c43bdf146128bb578063fbfa4b7f146128e55761040c565b8063e757223014612755578063ee95feaf1461277f578063f0d3a9df146127b2578063f2aa8218146127c75761040c565b8063e1ecc79411610104578063e1ecc794146122e7578063e261f1e51461231a578063e4b26115146124c8578063e530c400146124fb5761040c565b8063dd9d122d14611f26578063dec091ad14611f3b578063def936c31461219e578063e165af87146122b45761040c565b8063bed403c7116101b8578063cee26ed511610187578063cee26ed514611e60578063d1760e6014611e8a578063d713065114611ebd578063d7d1bbdb14611ee7578063dbd0e1b614611f115761040c565b8063bed403c714611b82578063c3c5a54714611bbb578063c560b4e514611bee578063cd392a8314611e365761040c565b8063b0a5dcd3116101f4578063b0a5dcd314611894578063b3c8fe85146118f0578063b9209e3314611b3a578063ba49a08c14611b6d5761040c565b8063a47d4c021461153b578063a4a0f6c01461156e578063a6dc41fb14611598578063ab517074146115cb5761040c565b8063603daf9a116103205780637910867b116102b3578063933836481161028257806393383648146111e7578063941e2426146114b4578063989376b4146114c95780639ae9711e146114fc5780639dc1bfa9146115115761040c565b80637910867b1461113657806383546501146111605780638965cde11461118a57806389d21354146111bd5761040c565b80636814800b116102ef5780636814800b14610e1457806368cfe6ee14610e475780636cbf6cf8146110f757806371019904146111215761040c565b8063603daf9a14610d2657806363f1714314610d8b5780636490c7a814610dbe57806367a09c2314610de85761040c565b80632607aafa116103a357806344c9af281161037257806344c9af281461091a57806348a46bd3146109445780634daa9dae146109775780634e2cba09146109a1578063601e7c3414610cf35761040c565b80632607aafa146108095780632a55feec146108a85780633410452a146108db5780633f9b250a146108f05761040c565b8063170f3909116103df578063170f39091461076f5780631869a38b146107a05780631a07f76e146107ca5780631c9afd0f146107f45761040c565b806307d56ac01461041157806311ce462c1461044d578063155fec721461071c57806316d9d6661461075a575b600080fd5b34801561041d57600080fd5b5061043b6004803603602081101561043457600080fd5b50356128fa565b60408051918252519081900360200190f35b34801561045957600080fd5b5061071a600480360360c081101561047057600080fd5b810190602081018135602060020a81111561048a57600080fd5b82018360208201111561049c57600080fd5b803590602001918460018302840111602060020a831117156104bd57600080fd5b91908080601f01602080910402602001604051908101604052809392919081815260200183838082843760009201919091525092958435959094909350604081019250602001359050602060020a81111561051757600080fd5b82018360208201111561052957600080fd5b803590602001918460018302840111602060020a8311171561054a57600080fd5b91908080601f0160208091040260200160405190810160405280939291908181526020018383808284376000920191909152509295949360208101935035915050602060020a81111561059c57600080fd5b8201836020820111156105ae57600080fd5b803590602001918460018302840111602060020a831117156105cf57600080fd5b91908080601f0160208091040260200160405190810160405280939291908181526020018383808284376000920191909152509295949360208101935035915050602060020a81111561062157600080fd5b82018360208201111561063357600080fd5b803590602001918460018302840111602060020a8311171561065457600080fd5b91908080601f0160208091040260200160405190810160405280939291908181526020018383808284376000920191909152509295949360208101935035915050602060020a8111156106a657600080fd5b8201836020820111156106b857600080fd5b803590602001918460018302840111602060020a831117156106d957600080fd5b91908080601f016020809104026020016040519081016040528093929190818152602001838380828437600092019190915250929550612912945050505050565b005b34801561072857600080fd5b506107466004803603602081101561073f57600080fd5b5035612a22565b604080519115158252519081900360200190f35b34801561076657600080fd5b5061043b612a41565b34801561077b57600080fd5b50610784612a48565b60408051600160a060020a039092168252519081900360200190f35b3480156107ac57600080fd5b50610784600480360360208110156107c357600080fd5b5035612a57565b3480156107d657600080fd5b50610746600480360360208110156107ed57600080fd5b5035612a72565b34801561080057600080fd5b5061043b612a87565b34801561081557600080fd5b506108336004803603602081101561082c57600080fd5b5035612a8d565b6040805160208082528351818301528351919283929083019185019080838360005b8381101561086d578181015183820152602001610855565b50505050905090810190601f16801561089a5780820380516001836020036101000a031916815260200191505b509250505060405180910390f35b3480156108b457600080fd5b50610746600480360360208110156108cb57600080fd5b5035600160a060020a0316612b2f565b3480156108e757600080fd5b5061043b612b58565b3480156108fc57600080fd5b506108336004803603602081101561091357600080fd5b5035612b5e565b34801561092657600080fd5b506108336004803603602081101561093d57600080fd5b5035612bc9565b34801561095057600080fd5b506107466004803603602081101561096757600080fd5b5035600160a060020a0316612c34565b34801561098357600080fd5b506107466004803603602081101561099a57600080fd5b5035612c80565b3480156109ad57600080fd5b5061071a600480360360e08110156109c457600080fd5b810190602081018135602060020a8111156109de57600080fd5b8201836020820111156109f057600080fd5b803590602001918460018302840111602060020a83111715610a1157600080fd5b91908080601f01602080910402602001604051908101604052809392919081815260200183838082843760009201919091525092958435959094909350604081019250602001359050602060020a811115610a6b57600080fd5b820183602082011115610a7d57600080fd5b803590602001918460018302840111602060020a83111715610a9e57600080fd5b91908080601f0160208091040260200160405190810160405280939291908181526020018383808284376000920191909152509295949360208101935035915050602060020a811115610af057600080fd5b820183602082011115610b0257600080fd5b803590602001918460018302840111602060020a83111715610b2357600080fd5b91908080601f0160208091040260200160405190810160405280939291908181526020018383808284376000920191909152509295949360208101935035915050602060020a811115610b7557600080fd5b820183602082011115610b8757600080fd5b803590602001918460018302840111602060020a83111715610ba857600080fd5b91908080601f0160208091040260200160405190810160405280939291908181526020018383808284376000920191909152509295949360208101935035915050602060020a811115610bfa57600080fd5b820183602082011115610c0c57600080fd5b803590602001918460018302840111602060020a83111715610c2d57600080fd5b91908080601f0160208091040260200160405190810160405280939291908181526020018383808284376000920191909152509295949360208101935035915050602060020a811115610c7f57600080fd5b820183602082011115610c9157600080fd5b803590602001918460018302840111602060020a83111715610cb257600080fd5b91908080601f016020809104026020016040519081016040528093929190818152602001838380828437600092019190915250929550612c95945050505050565b348015610cff57600080fd5b5061074660048036036020811015610d1657600080fd5b5035600160a060020a0316612e7e565b348015610d3257600080fd5b50610d3b612e93565b60408051602080825283518183015283519192839290830191858101910280838360005b83811015610d77578181015183820152602001610d5f565b505050509050019250505060405180910390f35b348015610d9757600080fd5b5061074660048036036020811015610dae57600080fd5b5035600160a060020a0316612ef5565b348015610dca57600080fd5b5061043b60048036036020811015610de157600080fd5b5035612f0a565b61071a60048036036040811015610dfe57600080fd5b50600160a060020a038135169060200135612f1f565b348015610e2057600080fd5b5061071a60048036036020811015610e3757600080fd5b5035600160a060020a0316612f6c565b348015610e5357600080fd5b50610e7a60048036036020811015610e6a57600080fd5b5035600160a060020a0316612fd9565b6040518080602001806020018060200180602001806020018881526020018060200187810387528e818151815260200191508051906020019080838360005b83811015610ed1578181015183820152602001610eb9565b50505050905090810190601f168015610efe5780820380516001836020036101000a031916815260200191505b5087810386528d5181528d516020918201918f019080838360005b83811015610f31578181015183820152602001610f19565b50505050905090810190601f168015610f5e5780820380516001836020036101000a031916815260200191505b5087810385528c5181528c516020918201918e019080838360005b83811015610f91578181015183820152602001610f79565b50505050905090810190601f168015610fbe5780820380516001836020036101000a031916815260200191505b5087810384528b5181528b516020918201918d019080838360005b83811015610ff1578181015183820152602001610fd9565b50505050905090810190601f16801561101e5780820380516001836020036101000a031916815260200191505b5087810383528a5181528a516020918201918c019080838360005b83811015611051578181015183820152602001611039565b50505050905090810190601f16801561107e5780820380516001836020036101000a031916815260200191505b5087810382528851815288516020918201918a019080838360005b838110156110b1578181015183820152602001611099565b50505050905090810190601f1680156110de5780820380516001836020036101000a031916815260200191505b509d505050505050505050505050505060405180910390f35b34801561110357600080fd5b506107466004803603602081101561111a57600080fd5b503561338a565b34801561112d57600080fd5b5061043b6133a9565b34801561114257600080fd5b506107466004803603602081101561115957600080fd5b50356133e4565b34801561116c57600080fd5b506107466004803603602081101561118357600080fd5b5035613403565b34801561119657600080fd5b5061071a600480360360208110156111ad57600080fd5b5035600160a060020a0316613418565b3480156111c957600080fd5b50610746600480360360208110156111e057600080fd5b5035613485565b3480156111f357600080fd5b5061071a600480360360c081101561120a57600080fd5b810190602081018135602060020a81111561122457600080fd5b82018360208201111561123657600080fd5b803590602001918460018302840111602060020a8311171561125757600080fd5b91908080601f01602080910402602001604051908101604052809392919081815260200183838082843760009201919091525092958435959094909350604081019250602001359050602060020a8111156112b157600080fd5b8201836020820111156112c357600080fd5b803590602001918460018302840111602060020a831117156112e457600080fd5b91908080601f0160208091040260200160405190810160405280939291908181526020018383808284376000920191909152509295949360208101935035915050602060020a81111561133657600080fd5b82018360208201111561134857600080fd5b803590602001918460018302840111602060020a8311171561136957600080fd5b91908080601f0160208091040260200160405190810160405280939291908181526020018383808284376000920191909152509295949360208101935035915050602060020a8111156113bb57600080fd5b8201836020820111156113cd57600080fd5b803590602001918460018302840111602060020a831117156113ee57600080fd5b91908080601f0160208091040260200160405190810160405280939291908181526020018383808284376000920191909152509295949360208101935035915050602060020a81111561144057600080fd5b82018360208201111561145257600080fd5b803590602001918460018302840111602060020a8311171561147357600080fd5b91908080601f01602080910402602001604051908101604052809392919081815260200183838082843760009201919091525092955061349a945050505050565b3480156114c057600080fd5b5061043b61365e565b3480156114d557600080fd5b50610746600480360360208110156114ec57600080fd5b5035600160a060020a0316613664565b34801561150857600080fd5b5061043b613679565b34801561151d57600080fd5b506107846004803603602081101561153457600080fd5b503561367f565b34801561154757600080fd5b506107466004803603602081101561155e57600080fd5b5035600160a060020a031661369a565b34801561157a57600080fd5b5061043b6004803603602081101561159157600080fd5b50356136af565b3480156115a457600080fd5b50610746600480360360208110156115bb57600080fd5b5035600160a060020a03166136c4565b3480156115d757600080fd5b506115fe600480360360208110156115ee57600080fd5b5035600160a060020a03166136d9565b6040518089600160a060020a0316600160a060020a0316815260200180602001888152602001806020018060200180602001806020018060200187810387528e818151815260200191508051906020019080838360005b8381101561166d578181015183820152602001611655565b50505050905090810190601f16801561169a5780820380516001836020036101000a031916815260200191505b5087810386528c5181528c516020918201918e019080838360005b838110156116cd5781810151838201526020016116b5565b50505050905090810190601f1680156116fa5780820380516001836020036101000a031916815260200191505b5087810385528b5181528b516020918201918d019080838360005b8381101561172d578181015183820152602001611715565b50505050905090810190601f16801561175a5780820380516001836020036101000a031916815260200191505b5087810384528a5181528a516020918201918c019080838360005b8381101561178d578181015183820152602001611775565b50505050905090810190601f1680156117ba5780820380516001836020036101000a031916815260200191505b5087810383528951815289516020918201918b019080838360005b838110156117ed5781810151838201526020016117d5565b50505050905090810190601f16801561181a5780820380516001836020036101000a031916815260200191505b5087810382528851815288516020918201918a019080838360005b8381101561184d578181015183820152602001611835565b50505050905090810190601f16801561187a5780820380516001836020036101000a031916815260200191505b509e50505050505050505050505050505060405180910390f35b3480156118a057600080fd5b506118be600480360360208110156118b757600080fd5b5035613a65565b60408051948552600160a060020a03938416602086015291909216838201526060830191909152519081900360800190f35b3480156118fc57600080fd5b506119236004803603602081101561191357600080fd5b5035600160a060020a0316613a99565b60405180806020018781526020018060200180602001806020018060200186810386528c818151815260200191508051906020019080838360005b8381101561197657818101518382015260200161195e565b50505050905090810190601f1680156119a35780820380516001836020036101000a031916815260200191505b5086810385528a5181528a516020918201918c019080838360005b838110156119d65781810151838201526020016119be565b50505050905090810190601f168015611a035780820380516001836020036101000a031916815260200191505b5086810384528951815289516020918201918b019080838360005b83811015611a36578181015183820152602001611a1e565b50505050905090810190601f168015611a635780820380516001836020036101000a031916815260200191505b5086810383528851815288516020918201918a019080838360005b83811015611a96578181015183820152602001611a7e565b50505050905090810190601f168015611ac35780820380516001836020036101000a031916815260200191505b50868103825287518152875160209182019189019080838360005b83811015611af6578181015183820152602001611ade565b50505050905090810190601f168015611b235780820380516001836020036101000a031916815260200191505b509b50505050505050505050505060405180910390f35b348015611b4657600080fd5b5061074660048036036020811015611b5d57600080fd5b5035600160a060020a0316613daf565b348015611b7957600080fd5b5061043b613dfa565b348015611b8e57600080fd5b5061071a60048036036040811015611ba557600080fd5b5080359060200135600160a060020a0316613e00565b348015611bc757600080fd5b5061074660048036036020811015611bde57600080fd5b5035600160a060020a0316613e7a565b348015611bfa57600080fd5b5061071a600480360360a0811015611c1157600080fd5b810190602081018135602060020a811115611c2b57600080fd5b820183602082011115611c3d57600080fd5b803590602001918460018302840111602060020a83111715611c5e57600080fd5b91908080601f01602080910402602001604051908101604052809392919081815260200183838082843760009201919091525092958435959094909350604081019250602001359050602060020a811115611cb857600080fd5b820183602082011115611cca57600080fd5b803590602001918460018302840111602060020a83111715611ceb57600080fd5b91908080601f0160208091040260200160405190810160405280939291908181526020018383808284376000920191909152509295949360208101935035915050602060020a811115611d3d57600080fd5b820183602082011115611d4f57600080fd5b803590602001918460018302840111602060020a83111715611d7057600080fd5b91908080601f0160208091040260200160405190810160405280939291908181526020018383808284376000920191909152509295949360208101935035915050602060020a811115611dc257600080fd5b820183602082011115611dd457600080fd5b803590602001918460018302840111602060020a83111715611df557600080fd5b91908080601f016020809104026020016040519081016040528093929190818152602001838380828437600092019190915250929550613ea3945050505050565b348015611e4257600080fd5b5061074660048036036020811015611e5957600080fd5b5035613f8a565b348015611e6c57600080fd5b5061078460048036036020811015611e8357600080fd5b5035613fa9565b348015611e9657600080fd5b5061071a60048036036020811015611ead57600080fd5b5035600160a060020a0316613fd0565b348015611ec957600080fd5b5061083360048036036020811015611ee057600080fd5b503561403d565b348015611ef357600080fd5b5061071a60048036036020811015611f0a57600080fd5b50356140ab565b348015611f1d57600080fd5b50610d3b6140e8565b348015611f3257600080fd5b5061043b614148565b348015611f4757600080fd5b50611f6e60048036036020811015611f5e57600080fd5b5035600160a060020a031661414e565b6040518088600160a060020a0316600160a060020a03168152602001806020018781526020018060200180602001806020018060200186810386528c818151815260200191508051906020019080838360005b83811015611fd9578181015183820152602001611fc1565b50505050905090810190601f1680156120065780820380516001836020036101000a031916815260200191505b5086810385528a5181528a516020918201918c019080838360005b83811015612039578181015183820152602001612021565b50505050905090810190601f1680156120665780820380516001836020036101000a031916815260200191505b5086810384528951815289516020918201918b019080838360005b83811015612099578181015183820152602001612081565b50505050905090810190601f1680156120c65780820380516001836020036101000a031916815260200191505b5086810383528851815288516020918201918a019080838360005b838110156120f95781810151838201526020016120e1565b50505050905090810190601f1680156121265780820380516001836020036101000a031916815260200191505b50868103825287518152875160209182019189019080838360005b83811015612159578181015183820152602001612141565b50505050905090810190601f1680156121865780820380516001836020036101000a031916815260200191505b509c5050505050505050505050505060405180910390f35b3480156121aa57600080fd5b506121c8600480360360208110156121c157600080fd5b5035614447565b604051808581526020018060200184815260200180602001838103835286818151815260200191508051906020019080838360005b838110156122155781810151838201526020016121fd565b50505050905090810190601f1680156122425780820380516001836020036101000a031916815260200191505b50838103825284518152845160209182019186019080838360005b8381101561227557818101518382015260200161225d565b50505050905090810190601f1680156122a25780820380516001836020036101000a031916815260200191505b50965050505050505060405180910390f35b3480156122c057600080fd5b50610746600480360360208110156122d757600080fd5b5035600160a060020a0316614585565b3480156122f357600080fd5b5061071a6004803603602081101561230a57600080fd5b5035600160a060020a03166145ae565b34801561232657600080fd5b506123446004803603602081101561233d57600080fd5b503561461b565b604051808a81526020018981526020018060200180602001888152602001878152602001868152602001806020018060200185810385528c818151815260200191508051906020019080838360005b838110156123ab578181015183820152602001612393565b50505050905090810190601f1680156123d85780820380516001836020036101000a031916815260200191505b5085810384528b5181528b516020918201918d019080838360005b8381101561240b5781810151838201526020016123f3565b50505050905090810190601f1680156124385780820380516001836020036101000a031916815260200191505b50858103835287518152875160209182019189019080838360005b8381101561246b578181015183820152602001612453565b50505050905090810190601f1680156124985780820380516001836020036101000a031916815260200191505b508581038252865181528651602091820191880190808383600083156110b1578181015183820152602001611099565b3480156124d457600080fd5b50610746600480360360208110156124eb57600080fd5b5035600160a060020a0316614888565b34801561250757600080fd5b5061071a600480360361010081101561251f57600080fd5b81359190810190604081016020820135602060020a81111561254057600080fd5b82018360208201111561255257600080fd5b803590602001918460018302840111602060020a8311171561257357600080fd5b91908080601f0160208091040260200160405190810160405280939291908181526020018383808284376000920191909152509295949360208101935035915050602060020a8111156125c557600080fd5b8201836020820111156125d757600080fd5b803590602001918460018302840111602060020a831117156125f857600080fd5b91908080601f0160208091040260200160405190810160405280939291908181526020018383808284376000920191909152509295843595602086013595604081013595509193509150608081019060600135602060020a81111561265c57600080fd5b82018360208201111561266e57600080fd5b803590602001918460018302840111602060020a8311171561268f57600080fd5b91908080601f0160208091040260200160405190810160405280939291908181526020018383808284376000920191909152509295949360208101935035915050602060020a8111156126e157600080fd5b8201836020820111156126f357600080fd5b803590602001918460018302840111602060020a8311171561271457600080fd5b91908080601f01602080910402602001604051908101604052809392919081815260200183838082843760009201919091525092955061489d945050505050565b34801561276157600080fd5b5061043b6004803603602081101561277857600080fd5b50356149e6565b34801561278b57600080fd5b50610746600480360360208110156127a257600080fd5b5035600160a060020a03166149fb565b3480156127be57600080fd5b5061043b614a24565b3480156127d357600080fd5b50610784600480360360208110156127ea57600080fd5b5035614a2a565b3480156127fd57600080fd5b5061281b6004803603602081101561281457600080fd5b5035614a37565b60408051600160a060020a039586168152939094166020840152828401919091521515606082015290519081900360800190f35b34801561285b57600080fd5b5061071a6004803603604081101561287257600080fd5b50600160a060020a038135169060200135614a79565b34801561289457600080fd5b50610746600480360360208110156128ab57600080fd5b5035600160a060020a0316614b7e565b3480156128c757600080fd5b5061071a600480360360208110156128de57600080fd5b5035614b93565b3480156128f157600080fd5b5061043b614bc0565b6000818152602081905260409020600501545b919050565b3360009081526005602052604090205460ff168015612947575033600081815260036020526040902054600160a060020a0316145b61295057600080fd5b336000908152600360209081526040909120875161297692600190920191890190614bc6565b503360009081526003602081815260409092206002810188905586516129a493919092019190870190614bc6565b5033600090815260036020908152604090912084516129cb92600490920191860190614bc6565b5033600090815260036020908152604090912083516129f292600790920191850190614bc6565b503360009081526003602090815260409091208251612a1992600590920191840190614bc6565b50505050505050565b6000818152600f602052604081205460ff161561290d5750600161290d565b6014545b90565b601154600160a060020a031681565b6000908152600d6020526040902054600160a060020a031690565b60106020526000908152604090205460ff1681565b60145481565b6000818152602081815260409182902060070180548351601f6002600019610100600186161502019093169290920491820184900484028101840190945280845260609392830182828015612b235780601f10612af857610100808354040283529160200191612b23565b820191906000526020600020905b815481529060010190602001808311612b0657829003601f168201915b50505050509050919050565b600160a060020a03811660009081526007602052604081205460ff161561290d5750600161290d565b60185490565b6000818152602081815260409182902060080180548351601f6002600019610100600186161502019093169290920491820184900484028101840190945280845260609392830182828015612b235780601f10612af857610100808354040283529160200191612b23565b6000818152602081815260409182902060030180548351601f6002600019610100600186161502019093169290920491820184900484028101840190945280845260609392830182828015612b235780601f10612af857610100808354040283529160200191612b23565b600160a060020a03811660009081526009602052604081205460ff1680612c735750600160a060020a0382166000908152600b602052604090205460ff165b1561290d5750600161290d565b600f6020526000908152604090205460ff1681565b3360009081526005602052604090205460ff1615612cb257600080fd5b3360008181526005602090815260408083208054600160ff1991821681179092556007845282852080549091168217905560178054820190558151610100810183528581528084018d81528184018d9052606082018c9052608082018b905260a082018a905260c0820189905260e08201889052958552600384529190932081518154600160a060020a031916600160a060020a0390911617815593518051919493612d649390850192910190614bc6565b506040820151600282015560608201518051612d8a916003840191602090910190614bc6565b5060808201518051612da6916004840191602090910190614bc6565b5060a08201518051612dc2916005840191602090910190614bc6565b5060c08201518051612dde916006840191602090910190614bc6565b5060e08201518051612dfa916007840191602090910190614bc6565b5050601380546001810182556000919091527f66de8ffda797e3de9c05e8fc57b3bf0ec28a930d40b0d285d93c06501cf6a090018054600160a060020a0319163390811790915560408051918252517f478f5152d8fc568db3f8de9fb402fd9d98a1a7541ecfe434e59cf574fbfc552492509081900360200190a150505050505050565b60066020526000908152604090205460ff1681565b60606013805480602002602001604051908101604052809291908181526020018280548015612eeb57602002820191906000526020600020905b8154600160a060020a03168152600190910190602001808311612ecd575b5050505050905090565b60096020526000908152604090205460ff1681565b60009081526020819052604090206001015490565b600081815260106020526040808220805460ff1916600117905551600160a060020a038416913480156108fc02929091818181858888f19350505050158015612f6757600080fd5b505050565b612f7533614585565b612f7e57600080fd5b600160a060020a0381166000818152600a6020908152604091829020805460ff19166001179055815192835290517f6a6455914f452787eb3985452aceedc1000fb545e394eb3b370e3d08958e0a5b9281900390910190a150565b600160a060020a03811660009081526003602081815260408084206002808201546001808401805486519281161561010002600019011693909304601f810187900487028201870190955284815260609788978897889788979396889690959385019460058101946006820194600783019460049093019289918301828280156130a45780601f10613079576101008083540402835291602001916130a4565b820191906000526020600020905b81548152906001019060200180831161308757829003601f168201915b5050895460408051602060026001851615610100026000190190941693909304601f8101849004840282018401909252818152959c508b9450925084019050828280156131325780601f1061310757610100808354040283529160200191613132565b820191906000526020600020905b81548152906001019060200180831161311557829003601f168201915b5050885460408051602060026001851615610100026000190190941693909304601f8101849004840282018401909252818152959b508a9450925084019050828280156131c05780601f10613195576101008083540402835291602001916131c0565b820191906000526020600020905b8154815290600101906020018083116131a357829003601f168201915b5050875460408051602060026001851615610100026000190190941693909304601f8101849004840282018401909252818152959a508994509250840190508282801561324e5780601f106132235761010080835404028352916020019161324e565b820191906000526020600020905b81548152906001019060200180831161323157829003601f168201915b5050865460408051602060026001851615610100026000190190941693909304601f8101849004840282018401909252818152959950889450925084019050828280156132dc5780601f106132b1576101008083540402835291602001916132dc565b820191906000526020600020905b8154815290600101906020018083116132bf57829003601f168201915b5050845460408051602060026001851615610100026000190190941693909304601f81018490048402820184019092528181529598508694509250840190508282801561336a5780601f1061333f5761010080835404028352916020019161336a565b820191906000526020600020905b81548152906001019060200180831161334d57829003601f168201915b505050505090509650965096509650965096509650919395979092949650565b6000818152600c602052604081205460ff161561290d5750600161290d565b600080805b6103e88110156133de576000818152600f602052604090205460ff16156133d6576001909101905b6001016133ae565b50905090565b6000818152600e602052604081205460ff161561290d5750600161290d565b600c6020526000908152604090205460ff1681565b61342133614585565b61342a57600080fd5b600160a060020a0381166000818152600b6020908152604091829020805460ff19166001179055815192835290517faf77f8960cf590e245ec8b6d41c193a5dcacad8986ae4eb57ac9e5be7b6af0319281900390910190a150565b600e6020526000908152604090205460ff1681565b3360009081526005602052604090205460ff16156134b757600080fd5b3360008181526005602090815260408083208054600160ff199182168117909255600684528285208054909116821790556016805482019055815160e0810183528581528084018c81528184018c9052606082018b9052608082018a905260a0820189905260c08201889052958552600284529190932081518154600160a060020a031916600160a060020a03909116178155935180519194936135619390850192910190614bc6565b506040820151600282015560608201518051613587916003840191602090910190614bc6565b50608082015180516135a3916004840191602090910190614bc6565b5060a082015180516135bf916005840191602090910190614bc6565b5060c082015180516135db916006840191602090910190614bc6565b5050601280546001810182556000919091527fbb8a6a4669ba250d26cd7a459eca9d215f8307e33aebe50379bc5a3617ec3444018054600160a060020a0319163390811790915560408051918252517f478f5152d8fc568db3f8de9fb402fd9d98a1a7541ecfe434e59cf574fbfc552492509081900360200190a1505050505050565b60155481565b600b6020526000908152604090205460ff1681565b60165481565b600d60205260009081526040902054600160a060020a031681565b60076020526000908152604090205460ff1681565b60009081526020819052604090206006015490565b600a6020526000908152604090205460ff1681565b6003602090815260009182526040918290208054600180830180548651600261010094831615949094026000190190911692909204601f8101869004860283018601909652858252600160a060020a039092169492939092908301828280156137835780601f1061375857610100808354040283529160200191613783565b820191906000526020600020905b81548152906001019060200180831161376657829003601f168201915b505050506002838101546003850180546040805160206001841615610100026000190190931695909504601f81018390048302860183019091528085529596929592945090919083018282801561381b5780601f106137f05761010080835404028352916020019161381b565b820191906000526020600020905b8154815290600101906020018083116137fe57829003601f168201915b5050505060048301805460408051602060026001851615610100026000190190941693909304601f81018490048402820184019092528181529495949350908301828280156138ab5780601f10613880576101008083540402835291602001916138ab565b820191906000526020600020905b81548152906001019060200180831161388e57829003601f168201915b5050505060058301805460408051602060026001851615610100026000190190941693909304601f810184900484028201840190925281815294959493509083018282801561393b5780601f106139105761010080835404028352916020019161393b565b820191906000526020600020905b81548152906001019060200180831161391e57829003601f168201915b5050505060068301805460408051602060026001851615610100026000190190941693909304601f81018490048402820184019092528181529495949350908301828280156139cb5780601f106139a0576101008083540402835291602001916139cb565b820191906000526020600020905b8154815290600101906020018083116139ae57829003601f168201915b5050505060078301805460408051602060026001851615610100026000190190941693909304601f8101849004840282018401909252818152949594935090830182828015613a5b5780601f10613a3057610100808354040283529160200191613a5b565b820191906000526020600020905b815481529060010190602001808311613a3e57829003601f168201915b5050505050905088565b60046020526000908152604090208054600182015460028301546003909301549192600160a060020a039182169291169084565b600160a060020a0381166000908152600260208181526040808420808401546001808301805485519281161561010002600019011696909604601f810186900486028201860190945283815260609695879586958695869593946003820193600483019360058401936006019291889190830182828015613b5b5780601f10613b3057610100808354040283529160200191613b5b565b820191906000526020600020905b815481529060010190602001808311613b3e57829003601f168201915b5050875460408051602060026001851615610100026000190190941693909304601f8101849004840282018401909252818152959b5089945092508401905082828015613be95780601f10613bbe57610100808354040283529160200191613be9565b820191906000526020600020905b815481529060010190602001808311613bcc57829003601f168201915b5050865460408051602060026001851615610100026000190190941693909304601f810184900484028201840190925281815295995088945092508401905082828015613c775780601f10613c4c57610100808354040283529160200191613c77565b820191906000526020600020905b815481529060010190602001808311613c5a57829003601f168201915b5050855460408051602060026001851615610100026000190190941693909304601f810184900484028201840190925281815295985087945092508401905082828015613d055780601f10613cda57610100808354040283529160200191613d05565b820191906000526020600020905b815481529060010190602001808311613ce857829003601f168201915b5050845460408051602060026001851615610100026000190190941693909304601f810184900484028201840190925281815295975086945092508401905082828015613d935780601f10613d6857610100808354040283529160200191613d93565b820191906000526020600020905b815481529060010190602001808311613d7657829003601f168201915b5050505050905095509550955095509550955091939550919395565b600160a060020a03811660009081526008602052604081205460ff1680612c735750600160a060020a0382166000908152600a602052604090205460ff161561290d5750600161290d565b60175481565b613e0933614585565b613e1257600080fd5b6000918252600460209081526040808420848155600181018054600160a060020a0319908116909155600282018054821690556003909101859055600f8352818520805460ff19169055600d9092529092208054909216600160a060020a0391909116179055565b600160a060020a03811660009081526005602052604081205460ff161561290d5750600161290d565b3360009081526005602052604090205460ff168015613ed8575033600081815260026020526040902054600160a060020a0316145b613ee157600080fd5b3360009081526002602090815260409091208651613f0792600190920191880190614bc6565b503360009081526002602081815260409092209081018690558451613f3492600390920191860190614bc6565b503360009081526002602090815260409091208351613f5b92600490920191850190614bc6565b503360009081526002602090815260409091208251613f8292600590920191840190614bc6565b505050505050565b60008181526010602052604081205460ff161561290d5750600161290d565b60128181548110613fb657fe5b600091825260209091200154600160a060020a0316905081565b613fd933614585565b613fe257600080fd5b600160a060020a038116600081815260086020908152604091829020805460ff19166001179055815192835290517f6a6455914f452787eb3985452aceedc1000fb545e394eb3b370e3d08958e0a5b9281900390910190a150565b600081815260208181526040918290206002908101805484516001821615610100026000190190911692909204601f81018490048402830184019094528382526060939192909190830182828015612b235780601f10612af857610100808354040283529160200191612b23565b6140b4336149fb565b80156140c457506140c433613daf565b6140cd57600080fd5b6000908152600e60205260409020805460ff19166001179055565b60606012805480602002602001604051908101604052809291908181526020018280548015612eeb57602002820191906000526020600020908154600160a060020a03168152600190910190602001808311612ecd575050505050905090565b60165490565b6002602081815260009283526040928390208054600180830180548751601f60001994831615610100029490940190911696909604918201859004850286018501909652808552600160a060020a03909116949193928301828280156141f55780601f106141ca576101008083540402835291602001916141f5565b820191906000526020600020905b8154815290600101906020018083116141d857829003601f168201915b505050506002838101546003850180546040805160206001841615610100026000190190931695909504601f81018390048302860183019091528085529596929592945090919083018282801561428d5780601f106142625761010080835404028352916020019161428d565b820191906000526020600020905b81548152906001019060200180831161427057829003601f168201915b5050505060048301805460408051602060026001851615610100026000190190941693909304601f810184900484028201840190925281815294959493509083018282801561431d5780601f106142f25761010080835404028352916020019161431d565b820191906000526020600020905b81548152906001019060200180831161430057829003601f168201915b5050505060058301805460408051602060026001851615610100026000190190941693909304601f81018490048402820184019092528181529495949350908301828280156143ad5780601f10614382576101008083540402835291602001916143ad565b820191906000526020600020905b81548152906001019060200180831161439057829003601f168201915b5050505060068301805460408051602060026001851615610100026000190190941693909304601f810184900484028201840190925281815294959493509083018282801561443d5780601f106144125761010080835404028352916020019161443d565b820191906000526020600020905b81548152906001019060200180831161442057829003601f168201915b5050505050905087565b600160208181526000928352604092839020805481840180548651600296821615610100026000190190911695909504601f810185900485028601850190965285855290949193929091908301828280156144e35780601f106144b8576101008083540402835291602001916144e3565b820191906000526020600020905b8154815290600101906020018083116144c657829003601f168201915b505050506002838101546003850180546040805160206001841615610100026000190190931695909504601f81018390048302860183019091528085529596929592945090919083018282801561457b5780601f106145505761010080835404028352916020019161457b565b820191906000526020600020905b81548152906001019060200180831161455e57829003601f168201915b5050505050905084565b601154600090600160a060020a03838116911614156145a65750600161290d565b50600061290d565b6145b733614585565b6145c057600080fd5b600160a060020a038116600081815260096020908152604091829020805460ff19166001179055815192835290517faf77f8960cf590e245ec8b6d41c193a5dcacad8986ae4eb57ac9e5be7b6af0319281900390910190a150565b6000602081815291815260409081902080546001808301546002808501805487519481161561010002600019011691909104601f810188900488028401880190965285835292959094919291908301828280156146b95780601f1061468e576101008083540402835291602001916146b9565b820191906000526020600020905b81548152906001019060200180831161469c57829003601f168201915b5050505060038301805460408051602060026001851615610100026000190190941693909304601f81018490048402820184019092528181529495949350908301828280156147495780601f1061471e57610100808354040283529160200191614749565b820191906000526020600020905b81548152906001019060200180831161472c57829003601f168201915b505050600484015460058501546006860154600787018054604080516020601f600260001961010060018816150201909516949094049384018190048102820181019092528281529899959894975092955090918301828280156147ee5780601f106147c3576101008083540402835291602001916147ee565b820191906000526020600020905b8154815290600101906020018083116147d157829003601f168201915b5050505060088301805460408051602060026001851615610100026000190190941693909304601f810184900484028201840190925281815294959493509083018282801561487e5780601f106148535761010080835404028352916020019161487e565b820191906000526020600020905b81548152906001019060200180831161486157829003601f168201915b5050505050905089565b60086020526000908152604090205460ff1681565b6148a6336149fb565b80156148b657506148b633613daf565b6148bf57600080fd5b60148054600190810191829055604080516101208101825283815260208082018d81528284018d8152606084018d9052608084018c905260a084018b905260c084018a905260e084018990526101008401889052600096875286835293909520825181559451938501939093559051805191939261494592600285019290910190614bc6565b5060608201518051614961916003840191602090910190614bc6565b506080820151600482015560a0820151600582015560c0820151600682015560e0820151805161499b916007840191602090910190614bc6565b5061010082015180516149b8916008840191602090910190614bc6565b50506014546000908152600d602052604090208054600160a060020a03191633179055505050505050505050565b60009081526020819052604090206004015490565b600160a060020a03811660009081526006602052604081205460ff161561290d5750600161290d565b60175490565b60138181548110613fb657fe5b600090815260046020908152604080832060018101546002820154600390920154600e9094529190932054600160a060020a0391821694919093169260ff1690565b614a8233612b2f565b8015614a925750614a9233613daf565b614a9b57600080fd5b60188054600190810180835560408051608081018252828152600160a060020a03808816602080840182815233858701908152606086018b8152600098895260048452878920965187559151868a018054918716600160a060020a0319928316179055905160028701805491909616911617909355915160039093019290925585548452600e8152828420805460ff1990811690915595548452600f8152928290208054909516909317909355825191825291517fc67eb70629da758128cec22f7e36ad0676066ad4df9b66e8ba58a30c1ab4075b929181900390910190a15050565b60056020526000908152604090205460ff1681565b614b9c33614585565b614ba557600080fd5b6000908152600c60205260409020805460ff19166001179055565b60185481565b828054600181600116156101000203166002900490600052602060002090601f016020900481019282601f10614c0757805160ff1916838001178555614c34565b82800160010185558215614c34579182015b82811115614c34578251825591602001919060010190614c19565b50614c40929150614c44565b5090565b612a4591905b80821115614c405760008155600101614c4a56fea265627a7a72315820c34bf41f777b2e4541410b65ab06a3ee21cbf70b0a72dddf8408c4915f649fb864736f6c63430005110032",
  "source": "pragma solidity >=0.5.2;\r\n\r\ncontract Land {\r\n    struct Landreg {\r\n        uint256 id;\r\n        uint256 area;\r\n        string city;\r\n        string state;\r\n        uint256 landPrice;\r\n        uint256 propertyPID;\r\n        uint256 physicalSurveyNumber;\r\n        string ipfsHash;\r\n        string document;\r\n    }\r\n\r\n    struct Buyer {\r\n        address id;\r\n        string name;\r\n        uint256 age;\r\n        string city;\r\n        string aadharNumber;\r\n        string panNumber;\r\n        string document;\r\n        string email;\r\n    }\r\n\r\n    struct Seller {\r\n        address id;\r\n        string name;\r\n        uint256 age;\r\n        string aadharNumber;\r\n        string panNumber;\r\n        string landsOwned;\r\n        string document;\r\n    }\r\n\r\n    struct LandInspector {\r\n        uint256 id;\r\n        string name;\r\n        uint256 age;\r\n        string designation;\r\n    }\r\n\r\n    struct LandRequest {\r\n        uint256 reqId;\r\n        address sellerId;\r\n        address buyerId;\r\n        uint256 landId;\r\n        // bool requestStatus;\r\n        // bool requested;\r\n    }\r\n\r\n    //key value pairs\r\n    mapping(uint256 => Landreg) public lands;\r\n    mapping(uint256 => LandInspector) public InspectorMapping;\r\n    mapping(address => Seller) public SellerMapping;\r\n    mapping(address => Buyer) public BuyerMapping;\r\n    mapping(uint256 => LandRequest) public RequestsMapping;\r\n\r\n    mapping(address => bool) public RegisteredAddressMapping;\r\n    mapping(address => bool) public RegisteredSellerMapping;\r\n    mapping(address => bool) public RegisteredBuyerMapping;\r\n    mapping(address => bool) public SellerVerification;\r\n    mapping(address => bool) public SellerRejection;\r\n    mapping(address => bool) public BuyerVerification;\r\n    mapping(address => bool) public BuyerRejection;\r\n    mapping(uint256 => bool) public LandVerification;\r\n    mapping(uint256 => address) public LandOwner;\r\n    mapping(uint256 => bool) public RequestStatus;\r\n    mapping(uint256 => bool) public RequestedLands;\r\n    mapping(uint256 => bool) public PaymentReceived;\r\n\r\n    address public Land_Inspector;\r\n    address[] public sellers;\r\n    address[] public buyers;\r\n\r\n    uint256 public landsCount;\r\n    uint256 public inspectorsCount;\r\n    uint256 public sellersCount;\r\n    uint256 public buyersCount;\r\n    uint256 public requestsCount;\r\n\r\n    event Registration(address _registrationId);\r\n    event AddingLand(uint256 indexed _landId);\r\n    event Landrequested(address _sellerId);\r\n    event requestApproved(address _buyerId);\r\n    event Verified(address _id);\r\n    event Rejected(address _id);\r\n\r\n    constructor() public {\r\n        Land_Inspector = msg.sender;\r\n        addLandInspector(\"Inspector 1\", 45, \"Tehsil Manager\");\r\n    }\r\n\r\n    function addLandInspector(\r\n        string memory _name,\r\n        uint256 _age,\r\n        string memory _designation\r\n    ) private {\r\n        inspectorsCount++;\r\n        InspectorMapping[inspectorsCount] = LandInspector(\r\n            inspectorsCount,\r\n            _name,\r\n            _age,\r\n            _designation\r\n        );\r\n    }\r\n\r\n    function getLandsCount() public view returns (uint256) {\r\n        return landsCount;\r\n    }\r\n\r\n    function getBuyersCount() public view returns (uint256) {\r\n        return buyersCount;\r\n    }\r\n\r\n    function getSellersCount() public view returns (uint256) {\r\n        return sellersCount;\r\n    }\r\n\r\n    function getRequestsCount() public view returns (uint256) {\r\n        return requestsCount;\r\n    }\r\n\r\n    function getArea(uint256 i) public view returns (uint256) {\r\n        return lands[i].area;\r\n    }\r\n\r\n    function getCity(uint256 i) public view returns (string memory) {\r\n        return lands[i].city;\r\n    }\r\n\r\n    function getState(uint256 i) public view returns (string memory) {\r\n        return lands[i].state;\r\n    }\r\n\r\n    function getRequestedLandsCount() public view returns (uint256) {\r\n        uint256 count = 0;\r\n        for (uint256 i = 0; i < 1000; i++) {\r\n            // assuming the mapping keys are integers between 0 and 999\r\n            if (RequestedLands[i]) {\r\n                count++;\r\n            }\r\n        }\r\n        return count;\r\n    }\r\n\r\n    function getPrice(uint256 i) public view returns (uint256) {\r\n        return lands[i].landPrice;\r\n    }\r\n\r\n    function getPID(uint256 i) public view returns (uint256) {\r\n        return lands[i].propertyPID;\r\n    }\r\n\r\n    function getSurveyNumber(uint256 i) public view returns (uint256) {\r\n        return lands[i].physicalSurveyNumber;\r\n    }\r\n\r\n    function getImage(uint256 i) public view returns (string memory) {\r\n        return lands[i].ipfsHash;\r\n    }\r\n\r\n    function getDocument(uint256 i) public view returns (string memory) {\r\n        return lands[i].document;\r\n    }\r\n\r\n    function getLandOwner(uint256 id) public view returns (address) {\r\n        return LandOwner[id];\r\n    }\r\n\r\n    function verifySeller(address _sellerId) public {\r\n        require(isLandInspector(msg.sender));\r\n\r\n        SellerVerification[_sellerId] = true;\r\n        emit Verified(_sellerId);\r\n    }\r\n\r\n    function rejectSeller(address _sellerId) public {\r\n        require(isLandInspector(msg.sender));\r\n\r\n        SellerRejection[_sellerId] = true;\r\n        emit Rejected(_sellerId);\r\n    }\r\n\r\n    function verifyBuyer(address _buyerId) public {\r\n        require(isLandInspector(msg.sender));\r\n\r\n        BuyerVerification[_buyerId] = true;\r\n        emit Verified(_buyerId);\r\n    }\r\n\r\n    function rejectBuyer(address _buyerId) public {\r\n        require(isLandInspector(msg.sender));\r\n\r\n        BuyerRejection[_buyerId] = true;\r\n        emit Rejected(_buyerId);\r\n    }\r\n\r\n    function verifyLand(uint256 _landId) public {\r\n        require(isLandInspector(msg.sender));\r\n\r\n        LandVerification[_landId] = true;\r\n    }\r\n\r\n    function isLandVerified(uint256 _id) public view returns (bool) {\r\n        if (LandVerification[_id]) {\r\n            return true;\r\n        }\r\n    }\r\n\r\n    function isVerified(address _id) public view returns (bool) {\r\n        if (SellerVerification[_id] || BuyerVerification[_id]) {\r\n            return true;\r\n        }\r\n    }\r\n\r\n    function isRejected(address _id) public view returns (bool) {\r\n        if (SellerRejection[_id] || BuyerRejection[_id]) {\r\n            return true;\r\n        }\r\n    }\r\n\r\n    function isSeller(address _id) public view returns (bool) {\r\n        if (RegisteredSellerMapping[_id]) {\r\n            return true;\r\n        }\r\n    }\r\n\r\n    function isLandInspector(address _id) public view returns (bool) {\r\n        if (Land_Inspector == _id) {\r\n            return true;\r\n        } else {\r\n            return false;\r\n        }\r\n    }\r\n\r\n    function isBuyer(address _id) public view returns (bool) {\r\n        if (RegisteredBuyerMapping[_id]) {\r\n            return true;\r\n        }\r\n    }\r\n\r\n    function isRegistered(address _id) public view returns (bool) {\r\n        if (RegisteredAddressMapping[_id]) {\r\n            return true;\r\n        }\r\n    }\r\n\r\n    function addLand(\r\n        uint256 _area,\r\n        string memory _city,\r\n        string memory _state,\r\n        uint256 landPrice,\r\n        uint256 _propertyPID,\r\n        uint256 _surveyNum,\r\n        string memory _ipfsHash,\r\n        string memory _document\r\n    ) public {\r\n        require((isSeller(msg.sender)) && (isVerified(msg.sender)));\r\n        landsCount++;\r\n        lands[landsCount] = Landreg(\r\n            landsCount,\r\n            _area,\r\n            _city,\r\n            _state,\r\n            landPrice,\r\n            _propertyPID,\r\n            _surveyNum,\r\n            _ipfsHash,\r\n            _document\r\n        );\r\n        LandOwner[landsCount] = msg.sender;\r\n        // emit AddingLand(landsCount);\r\n    }\r\n\r\n    //registration of seller\r\n    function registerSeller(\r\n        string memory _name,\r\n        uint256 _age,\r\n        string memory _aadharNumber,\r\n        string memory _panNumber,\r\n        string memory _landsOwned,\r\n        string memory _document\r\n    ) public {\r\n        //require that Seller is not already registered\r\n        require(!RegisteredAddressMapping[msg.sender]);\r\n\r\n        RegisteredAddressMapping[msg.sender] = true;\r\n        RegisteredSellerMapping[msg.sender] = true;\r\n        sellersCount++;\r\n        SellerMapping[msg.sender] = Seller(\r\n            msg.sender,\r\n            _name,\r\n            _age,\r\n            _aadharNumber,\r\n            _panNumber,\r\n            _landsOwned,\r\n            _document\r\n        );\r\n        sellers.push(msg.sender);\r\n        emit Registration(msg.sender);\r\n    }\r\n\r\n    function updateSeller(\r\n        string memory _name,\r\n        uint256 _age,\r\n        string memory _aadharNumber,\r\n        string memory _panNumber,\r\n        string memory _landsOwned\r\n    ) public {\r\n        //require that Seller is already registered\r\n        require(\r\n            RegisteredAddressMapping[msg.sender] &&\r\n                (SellerMapping[msg.sender].id == msg.sender)\r\n        );\r\n\r\n        SellerMapping[msg.sender].name = _name;\r\n        SellerMapping[msg.sender].age = _age;\r\n        SellerMapping[msg.sender].aadharNumber = _aadharNumber;\r\n        SellerMapping[msg.sender].panNumber = _panNumber;\r\n        SellerMapping[msg.sender].landsOwned = _landsOwned;\r\n    }\r\n\r\n    function getSeller() public view returns (address[] memory) {\r\n        return (sellers);\r\n    }\r\n\r\n    function getSellerDetails(\r\n        address i\r\n    )\r\n        public\r\n        view\r\n        returns (\r\n            string memory,\r\n            uint256,\r\n            string memory,\r\n            string memory,\r\n            string memory,\r\n            string memory\r\n        )\r\n    {\r\n        return (\r\n            SellerMapping[i].name,\r\n            SellerMapping[i].age,\r\n            SellerMapping[i].aadharNumber,\r\n            SellerMapping[i].panNumber,\r\n            SellerMapping[i].landsOwned,\r\n            SellerMapping[i].document\r\n        );\r\n    }\r\n\r\n    function registerBuyer(\r\n        string memory _name,\r\n        uint256 _age,\r\n        string memory _city,\r\n        string memory _aadharNumber,\r\n        string memory _panNumber,\r\n        string memory _document,\r\n        string memory _email\r\n    ) public {\r\n        //require that Buyer is not already registered\r\n        require(!RegisteredAddressMapping[msg.sender]);\r\n\r\n        RegisteredAddressMapping[msg.sender] = true;\r\n        RegisteredBuyerMapping[msg.sender] = true;\r\n        buyersCount++;\r\n        BuyerMapping[msg.sender] = Buyer(\r\n            msg.sender,\r\n            _name,\r\n            _age,\r\n            _city,\r\n            _aadharNumber,\r\n            _panNumber,\r\n            _document,\r\n            _email\r\n        );\r\n        buyers.push(msg.sender);\r\n\r\n        emit Registration(msg.sender);\r\n    }\r\n\r\n    function updateBuyer(\r\n        string memory _name,\r\n        uint256 _age,\r\n        string memory _city,\r\n        string memory _aadharNumber,\r\n        string memory _email,\r\n        string memory _panNumber\r\n    ) public {\r\n        //require that Buyer is already registered\r\n        require(\r\n            RegisteredAddressMapping[msg.sender] &&\r\n                (BuyerMapping[msg.sender].id == msg.sender)\r\n        );\r\n\r\n        BuyerMapping[msg.sender].name = _name;\r\n        BuyerMapping[msg.sender].age = _age;\r\n        BuyerMapping[msg.sender].city = _city;\r\n        BuyerMapping[msg.sender].aadharNumber = _aadharNumber;\r\n        BuyerMapping[msg.sender].email = _email;\r\n        BuyerMapping[msg.sender].panNumber = _panNumber;\r\n    }\r\n\r\n    function getBuyer() public view returns (address[] memory) {\r\n        return (buyers);\r\n    }\r\n\r\n    function getBuyerDetails(\r\n        address i\r\n    )\r\n        public\r\n        view\r\n        returns (\r\n            string memory,\r\n            string memory,\r\n            string memory,\r\n            string memory,\r\n            string memory,\r\n            uint256,\r\n            string memory\r\n        )\r\n    {\r\n        return (\r\n            BuyerMapping[i].name,\r\n            BuyerMapping[i].city,\r\n            BuyerMapping[i].panNumber,\r\n            BuyerMapping[i].document,\r\n            BuyerMapping[i].email,\r\n            BuyerMapping[i].age,\r\n            BuyerMapping[i].aadharNumber\r\n        );\r\n    }\r\n\r\n    function requestLand(address _sellerId, uint256 _landId) public {\r\n        require(isBuyer(msg.sender) && isVerified(msg.sender));\r\n\r\n        requestsCount++;\r\n        RequestsMapping[requestsCount] = LandRequest(\r\n            requestsCount,\r\n            _sellerId,\r\n            msg.sender,\r\n            _landId\r\n        );\r\n        RequestStatus[requestsCount] = false;\r\n        RequestedLands[requestsCount] = true;\r\n\r\n        emit Landrequested(_sellerId);\r\n    }\r\n\r\n    function getRequestDetails(\r\n        uint256 i\r\n    ) public view returns (address, address, uint256, bool) {\r\n        return (\r\n            RequestsMapping[i].sellerId,\r\n            RequestsMapping[i].buyerId,\r\n            RequestsMapping[i].landId,\r\n            RequestStatus[i]\r\n        );\r\n    }\r\n\r\n    function isRequested(uint256 _id) public view returns (bool) {\r\n        if (RequestedLands[_id]) {\r\n            return true;\r\n        }\r\n    }\r\n\r\n    function isApproved(uint256 _id) public view returns (bool) {\r\n        if (RequestStatus[_id]) {\r\n            return true;\r\n        }\r\n    }\r\n\r\n    function approveRequest(uint256 _reqId) public {\r\n        require((isSeller(msg.sender)) && (isVerified(msg.sender)));\r\n\r\n        RequestStatus[_reqId] = true;\r\n    }\r\n\r\n    function LandOwnershipTransfer(uint256 _landId, address _newOwner) public {\r\n        require(isLandInspector(msg.sender));\r\n        delete RequestsMapping[_landId];\r\n        delete RequestedLands[_landId];\r\n        LandOwner[_landId] = _newOwner;\r\n    }\r\n\r\n    function isPaid(uint256 _landId) public view returns (bool) {\r\n        if (PaymentReceived[_landId]) {\r\n            return true;\r\n        }\r\n    }\r\n\r\n    function payment(\r\n        address payable _receiver,\r\n        uint256 _landId\r\n    ) public payable {\r\n        PaymentReceived[_landId] = true;\r\n        _receiver.transfer(msg.value);\r\n    }\r\n}\r\n",
  "sourcePath": "D:\\Projects\\Land-Registration\\contracts\\Land.sol",
  "compiler": {
    "name": "solc",
    "version": "0.5.17+commit.d19bba13.Emscripten.clang"
  },
  "schemaVersion": "3.4.11",
  "updatedAt": "2023-05-29T13:18:08.935Z",
  "networkType": "ethereum",
  "devdoc": {
    "methods": {}
  },
  "userdoc": {
    "methods": {}
  }
}